:020000040800F2
:10000000D01D002045010008810B0008630B00088B
:1000100000000000000000000000000000000000E0
:10002000000000000000000000000000830B00083A
:100030000000000000000000030100088D0B000814
:100040005701000800000000570100085701000890
:100050005701000857010008570100085701000820
:100060000000000057010008570100085701000870
:1000700057010008F50B00085701000800000000B8
:1000800057010008570100085701000857010008F0
:1000900057010008570100085701000857010008E0
:1000A00057010008570100085701000857010008D0
:1000B00057010008570100080348854600F0DCF8A6
:1000C00000480047690D0008D01D0020084B196842
:1000D0000868203080F30988022080F31488BFF379
:1000E0006F8F3FBCAE4608BC04BC62B61847000028
:1000F00034000020EFF3108072B6704780F3108850
:100100007047EFF309800E4B1A6820381060F0C07A
:1001100044464D4656465F46F0C008B572B601F0FB
:1001200009FC62B60CBC116808681030F0C8A04623
:10013000A946B246BB4680F309882038F0C8184764
:10014000340000200448804704480047FEE7FEE7EB
:10015000FEE7FEE7FEE7FEE7F10B0008B900000846
:1001600030B50B46014600202022012409E00D464F
:10017000D5409D4205D31D469540491B25469540D7
:1001800040191546521E002DF1DC30BDF0B51FB4EC
:100190000646002082B005464024019100901BE0F5
:1001A000019922460F46304600F020F8049A059B3C
:1001B000801A994110D310461946224600F04BF898
:1001C000361A8F410197224601200021009F00F03E
:1001D00042F838184D4100902046641E0028DFDCAC
:1001E000019B00982946324607B0F0BD10B5202A81
:1001F00004DB0846203AD040002110BD0B46D34016
:10020000D0402024A21A91400843194610BD03464D
:100210000B439B0703D009E008C9121F08C0042A3A
:10022000FAD203E00B780370401C491C521EF9D22D
:100230007047D2B201E00270401C491EFBD27047E9
:100240000022F6E710B513460A4604461946FFF7A2
:10025000F0FF204610BD10B5202A04DB0146203AED
:100260009140002010BD914020239C1A0346E3409A
:100270001943904010BD0000064C0125064E05E0D4
:10028000E36807CC2B430C3C98471034B442F7D3B7
:10029000FFF716FF7C2100089C21000800B5002212
:1002A00000F002F800BD000030B50E4B05465C7A48
:1002B0000120012C15D8587A00241C54587A80004B
:1002C000C01845605D7A184608302A54587A421C96
:1002D0005A72303008703A2048702F208870CC70E5
:1002E000002030BDEC00002001488068704700000D
:1002F00024000020024881680278891881607047D4
:100300002400002010B50648016810221143016046
:10031000002000F007F800F041F8002010BD0000B8
:100320000020024000B5014687B000220D2000F0F9
:1003300059F80D2000F04AF813488269C1140A43A5
:10034000826180690840059004A9684600F0D2F8EF
:1003500000F0ECF80D49FFF703FF0E490C4A0A6064
:100360000D4A401ECA604860002008618860084647
:1003700000F0EAFA002802D0012007B000BD0548CD
:1003800000F008FBF9E700000010024040420F00B7
:10039000002C0140A4000020E703000008B50A4833
:1003A0008169012211438161816911400091C26913
:1003B00001040A43C261C069002208400321009081
:1003C000481F00F00FF808BD00100240002805DBB0
:1003D000C106C90E0120884001490860704700002D
:1003E00000E100E010B500F08DFC10BDF8B50F463F
:1003F000060059D03A4D2868C007C00FB84209D24C
:10040000286840084000384328602868C007C00FAB
:10041000B84249D13068334C81070CD5400704D528
:10042000606807210902084360606068F021884322
:10043000B168084360603078C00726D07068012832
:100440000ED0216802280ED0890700292CDA6168B5
:100450008908890001436160FFF746FF00900DE0C5
:1004600021688903F1E78901EFE7FFF73DFF009974
:10047000411A1D48814201D90320F8BD60680C2152
:100480000840716889008842EFD12868C007C00F12
:10049000B8420BD9286840084000384328602868D3
:1004A000C007C00FB84201D00120F8BD3078400726
:1004B00006D56068072109028843F1680843606037
:1004C00000F044F86168094A0906090F515CC84008
:1004D000074908600020FFF725FF0020F8BD000055
:1004E000002002400010024088130000582100083C
:1004F0003000002010B5072202600A4A53689B07AB
:100500009B0F43605368F0242340836052680723A5
:100510001B021A40C26004480068C007C00F086090
:1005200010BD0000001002400020024004480549B0
:1005300000684968044A4905490F515CC840704742
:1005400030000020001002406821000810B512A3FE
:100550000FCB88B06C460FC413A30FCB0FC4164942
:100560004B680C201A4602401448042A12D0082A6C
:1005700010D19A02120F6C46A45CC96A04AA09073A
:10058000090F525CD90300231946FFF7FFFD2146EE
:1005900000F092FB08B010BD02030405060708092D
:1005A0000A0B0C0D0E0F10100102030405060708BC
:1005B000090A0B0C0D0E0F100010024000127A00F9
:1005C000FEB504007AD02078DA4EDB4DC00746D065
:1005D00068680007800F012807D068680007800F4F
:1005E000022809D16868C00306D52868800336D57B
:1005F00060680028E6D032E06168012912D001204D
:100600008004002901D0052910D02968B143296050
:100610002968814329606068002814D0FFF764FED0
:1006200007460CE0286830432860F4E72968014356
:100630002960F7E7FFF758FEC01B64287ED82868BA
:100640008003F7D50BE0FFF74FFE074604E0FFF706
:100650004BFEC01B6428F1D828688003F7D42078AB
:1006600080073BD568680007800F10D068680007D6
:10067000800F022800D16868E068002828681ED032
:10068000012108432860FFF72FFE07460BE028688A
:1006900080070BD5E068012810D107E0FFF724FEA2
:1006A000C01B0228CAD828688007F7D52868F82117
:1006B00088432169C900084328600FE036E14008FB
:1006C00040002860FFF710FE074604E0FFF70CFE2D
:1006D000C01B0228B2D828688007F7D4207800070A
:1006E00022D5E0690028686A0FD0012108436862BA
:1006F000FFF7FAFD074604E0FFF7F6FDC01B0228EE
:100700009CD8686A8007F7D50EE040084000686210
:10071000FFF7EAFD074604E0FFF7E6FDC01B0228ED
:100720008CD8686A8007F7D420780427400700280F
:1007300063DA00200190E869C00000E08BE008D493
:10074000E969B8060143E961E969014001200091C6
:1007500001907A480168C90511D4016882151143D6
:100760000160FFF7C1FD009005E0FFF7BDFD0099B6
:10077000401A64286FD871480068C005F5D5A06894
:1007800001280AD0002801D0052811D0286A400885
:1007900040002862286AB84302E0286A0121084321
:1007A0002862A068002812D0FFF79EFD00900AE0A2
:1007B000286A38432862F0E7FFF796FD0099411A4E
:1007C0005F48814247D8286A8007F5D50DE0FFF7DA
:1007D0008BFD009006E0FFF787FD0099411A58480D
:1007E000814238D8286A8007F5D40198002804D0BF
:1007F000E969012000078143E9612078C00636D508
:10080000606901280CD0401D686B25D038436863AF
:10081000686B400840006863FFF766FD074623E009
:10082000686B38436863686B012108436863FFF7AE
:100830005BFD074604E0FFF757FDC01B02285BD8AD
:10084000686B8007F7D5686BF8218843A169C900F8
:10085000084368630BE04FE0B8436863F3E7FFF7D2
:1008600043FDC01B022847D8686B8007F7D4206A75
:1008700000285DD069680907890F022942D0012646
:1008800036060228286805D0B0432860FFF72CFD03
:10089000044633E0B0432860FFF726FD074604E036
:1008A000FFF722FDC01B022826D828688001F7D454
:1008B000E86AE16A000900010843E862616AA06A27
:1008C000084369683D221204914308436860286820
:1008D00030432860FFF708FD044604E0FFF704FDFD
:1008E000001B022808D828688001F7D520E0FFF710
:1008F000FBFC001B022801D90320FEBD28688001F3
:10090000F5D415E00128F8D06868E96A0246636A00
:1009100032409A420AD10907E26A090F914205D191
:100920000F2189040840A16A884201D00120FEBD40
:100930000020FEBD000001000010024000700040D9
:10094000881300007047704770B5040005D0254635
:100950002035687F002802D006E0012070BD00200D
:100960002877204600F014F802206877211D2068BF
:1009700000F048F901204034A071A877E877207092
:100980006070A070E070207160716877002070BDA9
:1009900070470000014620314A7F012A01D0012022
:1009A000704702224A770268D36801210B43D36063
:1009B0000068094A904205D0084A904202D0084A8D
:1009C000904204D182685207520F062A02D0026870
:1009D0000A43026000207047002C014000040040E0
:1009E00000400140704770B5044600680169002569
:1009F000C9438907002915DBC168C943890711D498
:100A0000E91E016101202077206880698007204667
:100A100002D0FFF7E7FF04E000F096F8204600F070
:100A200094F8257720680169C943490717D4C1683C
:100A3000C943490713D40421C94301610220207727
:100A4000206880698005800F204602D0FFF7CAFF2A
:100A500004E000F079F8204600F077F82577206868
:100A60000169C943090716D4C168C943090712D4EB
:100A70000821C9430161042020772068C0698007EC
:100A8000204602D0FFF7AEFF04E000F05DF82046FC
:100A900000F05BF8257720680169C943C90617D4BF
:100AA000C168C943C90613D41021C9430161082094
:100AB00020772068C0698005800F204602D0FFF7AC
:100AC00091FF04E000F040F8204600F03EF8257762
:100AD00020680169C943C90708D1C168C943C9076A
:100AE00004D1891E0161204600F030F820680169B8
:100AF000C943090609D4C168C943090605D4802140
:100B0000C94301612046FFF71DFF20680169C94301
:100B1000490609D4C168C943490605D44021C943DF
:100B20000161204600F01CF820680169C94389066C
:100B300009D4C168C943890605D42021C94301618C
:100B40002046FFF700FF70BD7047704710B5006882
:100B50000249884201D1FFF7CDFB10BD002C0140B6
:100B60007047FEE710B504490448FFF797FB0249B8
:100B7000491E087010BD00001D0000200800002064
:100B800070477047012000F007F9FBE710B5FFF749
:100B9000B1FA044601F05CF9002803D001200349B2
:100BA000000748602046FFF7A9FA10BD00ED00E0FD
:100BB00010B590B030216846FFF742FB00240220B8
:100BC0000F9400900D94012003900E941020049037
:100BD0000C9408946846FFF7F3FC07200C900D94E2
:100BE0000E9400210F940CA8FFF700FC10B010BD6C
:100BF0007047000010B50248FFF7F5FE10BD000079
:100C0000A4000020F0B502681A4B1B4C984201D09A
:100C1000A04203D17025AA434D682A43174D184EB0
:100C2000184F98420AD0A04208D0174CA04205D0D5
:100C3000A84203D0B04201D0B84205D114460322E5
:100C400012029443CA6822438024A2434C6922437F
:100C500002608A68C2620A688262984205D0A8422D
:100C600003D0B04201D0B84201D10969016301212A
:100C70004161F0BD002C01400004004000400140F3
:100C8000004401400048014000200040024801218A
:100C900001700078704700000400002001207047B8
:100CA0000020704702480121017000787047000061
:100CB0000400002000207047F8B5040C8BB22646D3
:100CC00082B25E430D0C1046370C5843360480192F
:100CD0000021794116466E43370C3604801979415C
:100CE00026466E438919F8BD30B47446641E2578D3
:100CF000641CAB4200D21D46635D5B00E31830BC50
:100D0000184700008307FF22DB0E9A408907090E6F
:100D10009940002808DB830809489B001B181868C5
:100D200090430843186070470007000F0838830895
:100D300004489B001B18D86990430843D86170474A
:100D400000E400E000ED00E002E008C8121F08C166
:100D5000002AFAD170477047002001E001C1121F3C
:100D6000002AFBD170470000FFF7CCFAFFF720FF05
:100D7000FFF7F8FE00F02AF8044A0021044800F0CA
:100D80005DF80449086000F03BF8FEE734210008F4
:100D9000850B00080000002010B5EFF30581002945
:100DA0000ED1EFF31081002903D007490968022909
:100DB00006D00024002801D000F030FD204610BDF0
:100DC0000524E443FAE7000084000020EFF30580E7
:100DD00000280CD1EFF31081084A0029106801D0D7
:100DE000022804D0002805D00020C0437047052009
:100DF000C04370470120106000207047840000202D
:100E000010B5EFF3058000280CD1EFF310810A4AEA
:100E10000029106801D0022804D0012805D0002044
:100E2000C04310BD0520C04310BD0220106000F07B
:100E300045FD002010BD000084000020F0B585B005
:100E40008C460023EFF30581039300294AD1EFF389
:100E50001081002903D024490968022942D00028C2
:100E600040D000236C4680251821237404AC002A4E
:100E70002CD01368002B00D01C469369002B03D0A4
:100E800019465B1E382B02D21379DB0702D00020F3
:100E900005B0F0BD5669002E00D0B5089768D3683C
:100EA000002F0ED05C2B1DD31269002A1AD0002E01
:100EB00018D06E4686C663462A46214600F08FFF4C
:100EC0000FE0002B0ED11269002A0BD103AA019268
:100ED0000091AAB26346214600F058FF012801D0D4
:100EE000002003900398D3E784000020F8B5134C4A
:100EF0000F46666905462068001D00F0B7FB681CB8
:100F000007D1002F05D021680D48091D00F0FEFB18
:100F1000F8BD2068751945602168B54204D2A06803
:100F2000091D00F0DBFBF8BD6068091D00F0D6FB71
:100F3000206B8542F7D22563F8BD00003400002005
:100F4000E8050020F8B5054600F0ECFB294C2069C7
:100F5000401C20612068284F002803D0E069002849
:100F600025D02AE025602069012826D100261420FA
:100F70007043C01900F0A4FB761C382EF7D31F482D
:100F800000F09EFB1D48143000F09AFB1B482830EF
:100F900000F096FB19483C3000F092FB17485030A7
:100FA00000F08EFB154860601430A06005E02068FA
:100FB000E96AC06A884200D82560E06A401CE062A5
:100FC0006864E86AA169884200D9A0611421484395
:100FD000C019291D00F09AFB00F0B0FBE069002861
:100FE00006D02068E96AC06A884201D200F0D6FBC8
:100FF000F8BD0000340000203801002098050020D2
:1010000038B500F08FFB114CA06800281AD11048A9
:1010100000F056FB0E48143000F052FB0C482060E4
:1010200014300B4B6060002028331A460090503279
:1010300010210A2000F0D2FCA060002802D005A1F7
:1010400000F0B8FB00F07AFB38BD00007000002013
:10105000FC050020546D72510000000010B5026CB8
:101060000C46002A0CD0C1688B18C36041688B42C3
:1010700001D2194601E00168C1602046FFF7C7F8B8
:1010800010BDF8B5856B174604460026026C002A91
:1010900011D0002F19D0E068FFF7B9F8E168206C93
:1010A000091AE1602268914202D26168081AE06080
:1010B000022F17D019E02068002816D1606800F0D0
:1010C00025FF0646002060600FE0A068FFF79FF84C
:1010D000216CA0684018A0606168884205D3206830
:1010E000A06002E0002D00D06D1E6D1CA56330468F
:1010F000F8BD10B504464030407E002805D00128D8
:1011000006D0022807D072B6FEE7206B00F024FB61
:10111000204600F021FB10BD03210E488902420742
:1011200005D0C01DC0080B4AC000821A891A0A4A9D
:101130000023411809C20839C908C900183A1160CA
:101140004B600B600B1A0AC093600120C00753600C
:10115000D0607047CC0D0020980000200F4E104C3E
:10116000104F11E000F0DEFAF068C568281D00F0AD
:101170007DFA2069401E2061E068401EE06000F0BA
:10118000DDFA2846FFF7B5FFE0680028EAD13868A5
:101190000128F9D900F002FBF6E70000D405002091
:1011A000340000203801002070B5049C1D46002941
:1011B00009D022602164E0630121204600F02EFC6A
:1011C0004034257370BD2460F4E7FFB581B097000B
:1011D0000C9C0E460A9DA5223946206BFFF729F884
:1011E000206B3F1FC019C708FF00780701D072B6F7
:1011F000FEE72218315C20321175315C002902D0E3
:10120000401C1028F5D32046403000260090C670C0
:10121000382D00D33725E5622665201DE56400F0F2
:101220005AFA2046183000F056FA24613820401B44
:101230006462A0616665009806763846049A019952
:1012400000F004FA20600B98002800D0046005B07C
:10125000F0BD000030B5114900E011460A68824235
:10126000FBD34B685C18844203D14068181848606F
:10127000084643681C18944209D1084C103C246865
:10128000A24209D052689A1842600A681268026045
:10129000814200D0086030BD0460F9E7980000206A
:1012A00070B5002441600B4D0061914206D8D11AFF
:1012B0008269914206D2011D686807E09A4203D212
:1012C000994201D3012403E0011D286800F006FAC9
:1012D000204670BD7000002010B5044600F022FAD0
:1012E000A06B002804D0002400F028FA204610BD8E
:1012F0000124F9E730B589B02C4D4EE00498002860
:1013000006DA059A0799069890470498002844DB66
:10131000069C6069002802D0201D00F0A7F902A8F1
:1013200000F0A4F8024604980300FFF7DDFC0A066B
:10133000060636232F06063623360598A16903468E
:1013400041182046FFF7ACFF002826D0616A2046EE
:101350008847E069012820D1002000900598A16904
:10136000002342181946204600F0BAFE002814D186
:1013700072B6FEE70598A061002805D081181346D3
:101380002046FFF78DFF08E072B6FEE72C20005DD7
:10139000002802D1204600F0DFF9002204A9A86845
:1013A00000F044FC0028A9D109B030BD7000002035
:1013B000FEB50F46054600F0B5FA01A800F056F854
:1013C00004460198002802D000F006FEFEBD1E4E25
:1013D000002F10D070680068002833D00027291B28
:1013E0003A46B06800F0F8F900F0F6FD0028EDD1BB
:1013F00000F0D4F9FEBDA542F1D800F0EDFD306853
:101400002746C068C468201D00F030F9E069012853
:1014100012D1A0692B4641193A462046FFF740FFFA
:10142000002809D000200346014600902A462046A5
:1014300000F056FE002803D0616A20468847FEBDB2
:1014400072B6FEE70127CAE770000020064841682F
:101450000968002905D04168C968C96849680163FD
:1014600070470021C943FAE73400002070B50546F3
:1014700000F0E8FC064E04463069844203D200F0D6
:1014800009F8012000E0002028602046346170BD8A
:1014900070000020F8B5164D20E0C068C4680668EA
:1014A000201D00F0E3F8616A20468847E0690128C2
:1014B00014D1A0698019B04206D924616060211D51
:1014C000286800F00BF909E000200346014600906F
:1014D0003246204600F004FE002807D02868016844
:1014E0000029DAD1696829606860F8BD72B6FEE744
:1014F0007000002003480068401C72B600D0FEE770
:10150000FEE70000A0000020074C206801680029C9
:1015100007D0C06800210068FFF74AFFFFF7EAFE26
:10152000F3E701210020F7E770000020F8B504463A
:1015300000F0F8F8254640350526AE5727462437F3
:101540000BE0606A00280AD0384600F013FD00283E
:1015500001D000F083F9761E76B2002EF1DC002770
:10156000FF436F7100F0EAF800F0DCF80426AE5794
:101570002046103000900BE0206900280AD0009827
:1015800000F0F8FC002801D000F068F9761E76B271
:10159000002EF1DC2F7100F0D1F8F8BDF8B505464A
:1015A000002700F0BFF9284E3068002801D1FFF76E
:1015B000B3FDF06805423FD1002D3DD008356807E6
:1015C00008D06807400F0821081A4519680701D09C
:1015D00072B6FEE7002D2FD0706885422CD81A48CD
:1015E000103001460C6801E020460C466168A942B3
:1015F00002D221680029F7D131688C421CD00768DB
:101600002168016060680837411B102908D96019FA
:10161000420701D072B6FEE741606560FFF71AFE2F
:1016200061687068401A7060B268904200D2B06021
:10163000F0680143002003C400F0CEFC780701D01D
:1016400072B6FEE73846F8BD8800002010B50124C8
:10165000031F24061C601B1F1960191F024B0B601F
:10166000143940380A6010BDF514000843688268D8
:1016700001699A60836842685A604A68824201D16F
:1016800082684A60002202610868401E086008689B
:1016900070470000034B036018465C3008608020F0
:1016A0001060704714070020044B036018465C303C
:1016B0000860FF20013010607047000070090020B2
:1016C0000146083100224160D243C160826001615D
:1016D00000210160704700210161704730B50B683F
:1016E0005A1C02D00246083202E0026904E0224697
:1016F000546825689D42FAD953684B6099608A60A6
:10170000516008610168491C016030BD42684A604F
:1017100093688B6093685960916008610168491C07
:101720000160704772B604480168491C0160BFF34C
:101730004F8FBFF36F8F7047A000002005490868E6
:10174000002804D0401E086000D162B6704772B60F
:10175000FEE70000A000002070B500281AD0044663
:101760000D4D083C6068E968084201D172B6FEE799
:101770002268002A01D072B6FEE78843606000F05C
:10178000D1F860686968401868602046FFF762FD1C
:1017900000F022FC70BD00008800002001200449F8
:1017A00000074860BFF34F8FBFF36F8F7047000093
:1017B00000ED00E010B5074B0022D4001C59002CAE
:1017C00003D0521C082AF8D310BDD2009950D1186A
:1017D000486010BDF800002070B515460E4604465E
:1017E000FFF7A0FF20464030042282560021521C01
:1017F00000D1017105228256521C00D14171FFF7C0
:101800009DFFA06B002805D120462A463146243092
:1018100000F03CF82046FFF789FE70BD10B50200CD
:101820000FD00948806B002801D072B6FEE700F0A7
:1018300079F800211046FFF759FB00F0CDFB002896
:1018400001D1FFF7ABFF10BD3400002002498A6AC6
:10185000026049694160704734000020014901205D
:10186000486270473400002010B50C46002809D0AB
:10187000054909681831FFF731FF01212046FFF7BC
:1018800035FB10BD72B6FEE73400002070B514467B
:101890000D4600280DD0084909681831FFF736FFBA
:1018A000002C01D00025ED4321462846FFF71EFB02
:1018B00070BD72B6FEE700003400002030B587B07E
:1018C0000024039405AA04A903A80494FFF7E2FEE8
:1018D0000499039800940191029000230DA10F48F0
:1018E000059A00F07CFA0E4D0028686310D000F0D5
:1018F000CBFB012803D0401C0AD172B6FEE772B6BA
:101900000020C04328630120E8616C6100F03EF8CC
:1019100007B030BD49444C45000000005D1100088F
:10192000340000200248816B491C8163704700002D
:101930003400002010B51348816B002902D001212A
:10194000416210BD0021416281690F4A02E0002915
:1019500015D0491E14234B43D358002BF7D0142322
:101960004B439A18536814465B6808345360A3428B
:1019700001D15B685360DA680260816110BD72B6A4
:10198000FEE70000340000203801002070B50F4849
:10199000016AFF22120411430162016A120211431B
:1019A00001620B4C00252561A5610A487D21C90013
:1019B0000068FEF7D5FB401E6061072020610648E5
:1019C0000560FEF783FB002070BD000000ED00E025
:1019D00000E000E030000020A0000020F8B5069DE7
:1019E000002806D0002B06D0002A08D0002904D0F9
:1019F00009E072B6FEE772B6FEE772B6FEE70029AE
:101A000001D072B6FEE750241C46012640339E7179
:101A10002B460094FFF7C8FB2046F8BD70B50D4675
:101A2000040025D0FFF77EFE216CE06B484321685F
:101A3000411861600021A1632168A160E06B216C05
:101A4000401E484321684118E1600021C9432046F7
:101A50004030017141713038002D0BD0FFF730FE5E
:101A600020462430FFF72CFEFFF768FE012070BDF2
:101A700072B6FEE721690029F6D000F07BFA002853
:101A8000F2D0FFF78BFEEFE7FFB5002683B01D46CF
:101A9000040003D00498002802D006E072B6FEE7E6
:101AA000206C002801D072B6FEE7022D04D1E06B55
:101AB000012801D072B6FEE700F0B4F90027002833
:101AC00004D10598002801D072B6FEE7FFF72AFE80
:101AD000A06BE16B884207D3022D05D00598002842
:101AE00017D0002E18D01BE02A4620460499FFF795
:101AF000C8FA616A002903D02046243000F03AFA7F
:101B0000002801D0FFF74AFEFFF718FE012007B0BA
:101B1000F0BDFFF713FE22E06846FFF797FE0126AF
:101B2000FFF70CFEFFF7FEFEFFF7FCFD20464030FE
:101B300004214156491C00D1077105214156491C19
:101B400000D14771FFF7FAFD05A9684600F0F0F8EB
:101B5000002806D02046FFF7E9FC00F03DFA0020FF
:101B6000D5E7FFF7DFFDA06BE16B884210D1FFF7EF
:101B7000E5FD204610300599FFF776FE2046FFF779
:101B8000D5FC00F029FA0028A0D1FFF707FE9DE759
:101B9000FFF7D4FD2046FFF7C9FC00F01DFA95E7DA
:101BA000FFB581B01E46040003D00298002802D081
:101BB00006E072B6FEE7206C002801D072B6FEE7A0
:101BC000022E04D1E06B012801D072B6FEE7FEF7C9
:101BD00091FA0090A06BE16B884208D3022E06D0E8
:101BE00000240098FEF78AFA204605B0F0BD204692
:101BF0004030052545570746324620460299FFF7F3
:101C000040FA681C03D06D1C7D710124E9E7606A0D
:101C10000028FAD02046243000F0ACF90028F4D097
:101C200003980028F1D001210160EEE7F7B5002507
:101C300082B0040003D00398002802D006E072B6F8
:101C4000FEE7206C002801D072B6FEE700F0EAF84B
:101C50000026002804D10498002801D072B6FEE7BF
:101C6000FFF760FDA76B002F15D020460399FFF703
:101C7000F5F97F1EA7632069002807D020461030A1
:101C800000F078F9002801D0FFF788FDFFF756FD36
:101C9000012005B0F0BD0498002802D0002D03D02B
:101CA00006E0FFF74BFD27E06846FFF7CFFD012573
:101CB000FFF744FDFFF736FEFFF734FD20464030C6
:101CC00004214156491C00D1067105214156491C89
:101CD00000D14671FFF732FD04A9684600F028F8EC
:101CE000002820460AD0FFF721FC00F075F92046B5
:101CF000FFF7F2FA0028B3D00020CAE7FFF7ECFAAA
:101D000000280ED0204624300499FFF7ADFD204670
:101D1000FFF70CFC00F060F90028A1D1FFF73EFDB1
:101D20009EE72046FFF702FC00F056F998E7000016
:101D3000F8B50C46050012D0002C12D0FFF7F2FCCB
:101D4000114B5A696E682068911B471C0BD02F6895
:101D50009B6A9F420CD096420AD8012404E072B6D6
:101D6000FEE772B6FEE70024FFF7E8FC2046F8BD68
:101D7000884205D9401A20602846FFF767FDF2E740
:101D800000202060E9E7000034000020FFB585B0A6
:101D9000164690000F9FFFF701FC05001CD05C2049
:101DA000FFF7FCFB040014D00020592125630855DF
:101DB0000E9900910390019702943246089B069970
:101DC0000598FFF702FA2046FFF7BCF8012009B09A
:101DD000F0BD2846FFF7C0FC0020C043F7E7F0B590
:101DE00085B007460B9D0C9C0A98002D15D0002C41
:101DF00015D05C262563022559263555002504AEED
:101E000000900196039502943846FFF7DEF92046CC
:101E1000FFF798F8049805B0F0BD72B6FEE772B609
:101E2000FEE700000648C169002904D0806B002845
:101E300003D0002070470120704702207047000047
:101E40003400002001484069704700003400002041
:101E5000F8B52C4C0027A06B002808D0206A401C45
:101E60002062606A002800D001273846F8BD666904
:101E7000761C66610ED160680068002801D072B6D9
:101E8000FEE76068A1686160A060A06A401CA06273
:101E9000FFF7DCFA206B86420AD3606800680028EE
:101EA00010D06068C068C568686886420DD220633B
:101EB00020681421C06A4843134908580128D0D922
:101EC0000127CEE70020C043F1E7281DFFF7CEFB36
:101ED000A86A002803D028461830FFF7C7FBE86A35
:101EE000A169884200D9A0611421484306494018DD
:101EF000291DFFF70BFCE86A2168C96A8842CCD328
:101F00000127CAE7340000203801002070B5002105
:101F10000446002828D0154D2868844201D072B6A6
:101F2000FEE7206D002808D0401E2065E36CE26AC1
:101F30009A4219D0002802D016E072B6FEE7201DA2
:101F4000FFF794FBE06C3821E062081AA061E06AB8
:101F5000A969884200D9A86114214843044940185E
:101F6000211DFFF7D3FB0121084670BD340000207E
:101F70003801002070B5C068C468002C0BD0204622
:101F800018300646FFF772FB104DA86B002804D0EE
:101F900031460F480EE072B6FEE7201DFFF766FBE4
:101FA000E06AA969884200D9A86114214843094917
:101FB0004018211DFFF7AAFBE06A2968C96A884218
:101FC00002D90120686270BD002070BD340000207D
:101FD000C005002038010020F8B5284C0025A06B72
:101FE0002E46002808D0FFF79DFBA06B401EA06383
:101FF000A06B002802D03CE072B6FEE72169204FBA
:1020000000291CD135E0F868C56828461830FFF76C
:102010002DFB281DFFF72AFBE86AA169884200D939
:10202000A0611421484317494018291DFFF76EFB92
:10203000E86A2168C96A884201D301206062386871
:102040000028E0D1002D01D0FFF700FA256A002D0D
:1020500009D00127FFF7FCFE002800D067626D1E43
:10206000F8D100202062606A002802D00126FFF724
:1020700095FBFFF763FB3046F8BD000034000020FD
:10208000C00500203801002010B586B0FEF7B8FF6B
:102090000F4CA068002819D000200390049005AAD6
:1020A00004A903A8FFF700FB0220039A04990090FB
:1020B00002920191002307A10848059AFFF78FFEBD
:1020C000E060002802D0012006B010BD72B6FEE725
:1020D00070000020546D72205376630009150008CB
:1020E000F0B51D4685B0034600200A9E002B13D094
:1020F0000F4CA768002F0DD068460EC0062910DAD5
:10210000FFF790FE022809D000231A466946A0680E
:10211000FFF7BAFC05B0F0BD72B6FEE70023324609
:10212000F4E700232A4669463846FFF739FDF1E710
:102130007000002070210008000000000000000076
:102140000000000000000000000200001800000075
:10215000000000000000000000000000000000007F
:10216000010203040607080900000000010203043D
:1021700064656661756C745461736B009C21000822
:1021800000000020A4000000480D000840220008C4
:10219000A40000202C1D0000580D000800000000C5
:1021A000010000008D0C0008A50C0008A10C00081F
:1021B000B50C00089D0C00080000000000000000A5
:1021C00001000000040000000000000000127A007E
:1021D00000000000000000000000000000000000FF
:1021E00000000000000000000000000000000000EF
:1021F00000000000000000000000000000000000DF
:1022000000000000000000000000000000000000CE
:1022100000000000000000000000000000000000BE
:1022200000000000000000000000000000000000AE
:10223000000000000000000000000000AAAAAAAAF6
:04000005080000B936
:00000001FF
